{
  "contractName": "Reviews",
  "abi": [
    {
      "inputs": [],
      "stateMutability": "nonpayable",
      "type": "constructor"
    },
    {
      "inputs": [
        {
          "internalType": "address",
          "name": "",
          "type": "address"
        }
      ],
      "name": "profiles",
      "outputs": [
        {
          "internalType": "address",
          "name": "adrs",
          "type": "address"
        },
        {
          "internalType": "uint256",
          "name": "id",
          "type": "uint256"
        },
        {
          "internalType": "uint256",
          "name": "reviewsCount",
          "type": "uint256"
        },
        {
          "internalType": "uint256",
          "name": "reviewsSum",
          "type": "uint256"
        },
        {
          "internalType": "uint8",
          "name": "average",
          "type": "uint8"
        },
        {
          "internalType": "string",
          "name": "description",
          "type": "string"
        }
      ],
      "stateMutability": "view",
      "type": "function",
      "constant": true
    },
    {
      "inputs": [],
      "name": "profilesCount",
      "outputs": [
        {
          "internalType": "uint256",
          "name": "",
          "type": "uint256"
        }
      ],
      "stateMutability": "view",
      "type": "function",
      "constant": true
    },
    {
      "inputs": [
        {
          "internalType": "string",
          "name": "_stringAddress",
          "type": "string"
        }
      ],
      "name": "addProfile",
      "outputs": [],
      "stateMutability": "nonpayable",
      "type": "function"
    },
    {
      "inputs": [
        {
          "internalType": "string",
          "name": "_stringAddress",
          "type": "string"
        }
      ],
      "name": "getProfile",
      "outputs": [
        {
          "internalType": "string[]",
          "name": "",
          "type": "string[]"
        }
      ],
      "stateMutability": "nonpayable",
      "type": "function"
    },
    {
      "inputs": [
        {
          "internalType": "string",
          "name": "_stringAddress",
          "type": "string"
        }
      ],
      "name": "getReviewStrings",
      "outputs": [
        {
          "internalType": "string[]",
          "name": "",
          "type": "string[]"
        }
      ],
      "stateMutability": "view",
      "type": "function",
      "constant": true
    },
    {
      "inputs": [
        {
          "internalType": "string",
          "name": "_stringAddress",
          "type": "string"
        },
        {
          "internalType": "string",
          "name": "_desc",
          "type": "string"
        }
      ],
      "name": "editProfile",
      "outputs": [],
      "stateMutability": "nonpayable",
      "type": "function"
    },
    {
      "inputs": [
        {
          "internalType": "string",
          "name": "_stringAddress",
          "type": "string"
        },
        {
          "internalType": "uint8",
          "name": "_review",
          "type": "uint8"
        },
        {
          "internalType": "string",
          "name": "_reviewString",
          "type": "string"
        }
      ],
      "name": "addReview",
      "outputs": [],
      "stateMutability": "nonpayable",
      "type": "function"
    }
  ],
  "bytecode": "0x608060405234801561001057600080fd5b506117f1806100206000396000f3fe608060405234801561001057600080fd5b506004361061007d5760003560e01c8063760b260e1161005b578063760b260e146100ec578063835553351461011c578063b32d914114610138578063bbe15627146101545761007d565b80630c717b9e146100825780630de986931461009e578063702c0a76146100ce575b600080fd5b61009c600480360381019061009791906111c3565b610189565b005b6100b860048036038101906100b391906111c3565b610295565b6040516100c5919061158b565b60405180910390f35b6100d66104c1565b6040516100e3919061160d565b60405180910390f35b610106600480360381019061010191906111c3565b6104c7565b604051610113919061158b565b60405180910390f35b61013660048036038101906101319190611204565b610605565b005b610152600480360381019061014d9190611270565b6106a5565b005b61016e6004803603810190610169919061119a565b610ae7565b60405161018096959493929190611523565b60405180910390f35b60016000815480929190600101919050555060006101a682610be8565b905060008060008373ffffffffffffffffffffffffffffffffffffffff1673ffffffffffffffffffffffffffffffffffffffff16815260200190815260200160002090506001548160010181905550338160000160006101000a81548173ffffffffffffffffffffffffffffffffffffffff021916908373ffffffffffffffffffffffffffffffffffffffff1602179055506040518060400160405280601181526020017f456d707479204465736372697074696f6e000000000000000000000000000000815250816005019080519060200190610285929190610f80565b5060008160020181905550505050565b60606000600280549050905060005b818110156102e25760028054806102b757fe5b6001900381819060005260206000200160006102d3919061100e565b905580806001019150506102a4565b5060006102ee84610be8565b905060008060008373ffffffffffffffffffffffffffffffffffffffff1673ffffffffffffffffffffffffffffffffffffffff168152602001908152602001600020905060028160050190806001815401808255809150506001900390600052602060002001600090919091909150908054600181600116156101000203166002900461037c929190611056565b50600261039c8260040160009054906101000a900460ff1660ff16610e3c565b9080600181540180825580915050600190039060005260206000200160009091909190915090805190602001906103d4929190610f80565b506002805480602002602001604051908101604052809291908181526020016000905b828210156104b3578382906000526020600020018054600181600116156101000203166002900480601f01602080910402602001604051908101604052809291908181526020018280546001816001161561010002031660029004801561049f5780601f106104745761010080835404028352916020019161049f565b820191906000526020600020905b81548152906001019060200180831161048257829003601f168201915b5050505050815260200190600101906103f7565b505050509350505050919050565b60015481565b606060006104d483610be8565b905060008060008373ffffffffffffffffffffffffffffffffffffffff1673ffffffffffffffffffffffffffffffffffffffff168152602001908152602001600020905080600701805480602002602001604051908101604052809291908181526020016000905b828210156105f8578382906000526020600020018054600181600116156101000203166002900480601f0160208091040260200160405190810160405280929190818152602001828054600181600116156101000203166002900480156105e45780601f106105b9576101008083540402835291602001916105e4565b820191906000526020600020905b8154815290600101906020018083116105c757829003601f168201915b50505050508152602001906001019061053c565b5050505092505050919050565b600061061083610be8565b90503373ffffffffffffffffffffffffffffffffffffffff168173ffffffffffffffffffffffffffffffffffffffff161461064a57600080fd5b816000808373ffffffffffffffffffffffffffffffffffffffff1673ffffffffffffffffffffffffffffffffffffffff168152602001908152602001600020600501908051906020019061069f929190610f80565b50505050565b60008260ff161180156106bb575060068260ff16105b6106fa576040517f08c379a00000000000000000000000000000000000000000000000000000000081526004016106f1906115ed565b60405180910390fd5b600061070584610be8565b905060008060008373ffffffffffffffffffffffffffffffffffffffff1673ffffffffffffffffffffffffffffffffffffffff16815260200190815260200160002060060160003373ffffffffffffffffffffffffffffffffffffffff1673ffffffffffffffffffffffffffffffffffffffff16815260200190815260200160002060009054906101000a900460ff1660ff16146107d8576040517f08c379a00000000000000000000000000000000000000000000000000000000081526004016107cf906115ad565b60405180910390fd5b3373ffffffffffffffffffffffffffffffffffffffff168173ffffffffffffffffffffffffffffffffffffffff161415610847576040517f08c379a000000000000000000000000000000000000000000000000000000000815260040161083e906115cd565b60405180910390fd5b826000808373ffffffffffffffffffffffffffffffffffffffff1673ffffffffffffffffffffffffffffffffffffffff16815260200190815260200160002060060160003373ffffffffffffffffffffffffffffffffffffffff1673ffffffffffffffffffffffffffffffffffffffff16815260200190815260200160002060006101000a81548160ff021916908360ff1602179055506000808273ffffffffffffffffffffffffffffffffffffffff1673ffffffffffffffffffffffffffffffffffffffff16815260200190815260200160002060070182908060018154018082558091505060019003906000526020600020016000909190919091509080519060200190610958929190610f80565b506000808273ffffffffffffffffffffffffffffffffffffffff1673ffffffffffffffffffffffffffffffffffffffff168152602001908152602001600020600201600081548092919060010191905055508260ff166000808373ffffffffffffffffffffffffffffffffffffffff1673ffffffffffffffffffffffffffffffffffffffff168152602001908152602001600020600301600082825401925050819055506000808273ffffffffffffffffffffffffffffffffffffffff1673ffffffffffffffffffffffffffffffffffffffff168152602001908152602001600020600201546000808373ffffffffffffffffffffffffffffffffffffffff1673ffffffffffffffffffffffffffffffffffffffff1681526020019081526020016000206003015481610a8757fe5b046000808373ffffffffffffffffffffffffffffffffffffffff1673ffffffffffffffffffffffffffffffffffffffff16815260200190815260200160002060040160006101000a81548160ff021916908360ff16021790555050505050565b60006020528060005260406000206000915090508060000160009054906101000a900473ffffffffffffffffffffffffffffffffffffffff16908060010154908060020154908060030154908060040160009054906101000a900460ff1690806005018054600181600116156101000203166002900480601f016020809104026020016040519081016040528092919081815260200182805460018160011615610100020316600290048015610bde5780601f10610bb357610100808354040283529160200191610bde565b820191906000526020600020905b815481529060010190602001808311610bc157829003601f168201915b5050505050905086565b600080829050600080806000600290505b602a811015610e2f5761010084029350848181518110610c1557fe5b602001015160f81c60f81b60f81c60ff169250846001820181518110610c3757fe5b602001015160f81c60f81b60f81c60ff16915060618373ffffffffffffffffffffffffffffffffffffffff1610158015610c88575060668373ffffffffffffffffffffffffffffffffffffffff1611155b15610c9857605783039250610d32565b60418373ffffffffffffffffffffffffffffffffffffffff1610158015610cd6575060468373ffffffffffffffffffffffffffffffffffffffff1611155b15610ce657603783039250610d31565b60308373ffffffffffffffffffffffffffffffffffffffff1610158015610d24575060398373ffffffffffffffffffffffffffffffffffffffff1611155b15610d30576030830392505b5b5b60618273ffffffffffffffffffffffffffffffffffffffff1610158015610d70575060668273ffffffffffffffffffffffffffffffffffffffff1611155b15610d8057605782039150610e1a565b60418273ffffffffffffffffffffffffffffffffffffffff1610158015610dbe575060468273ffffffffffffffffffffffffffffffffffffffff1611155b15610dce57603782039150610e19565b60308273ffffffffffffffffffffffffffffffffffffffff1610158015610e0c575060398273ffffffffffffffffffffffffffffffffffffffff1611155b15610e18576030820391505b5b5b81601084020184019350600281019050610bf9565b5082945050505050919050565b60606000821415610e84576040518060400160405280600181526020017f30000000000000000000000000000000000000000000000000000000000000008152509050610f7b565b600082905060005b60008214610eae578080600101915050600a8281610ea657fe5b049150610e8c565b60008167ffffffffffffffff81118015610ec757600080fd5b506040519080825280601f01601f191660200182016040528015610efa5781602001600182028036833780820191505090505b50905060006001830390505b60008614610f7357600a8681610f1857fe5b0660300160f81b82828060019003935081518110610f3257fe5b60200101907effffffffffffffffffffffffffffffffffffffffffffffffffffffffffffff1916908160001a905350600a8681610f6b57fe5b049550610f06565b819450505050505b919050565b828054600181600116156101000203166002900490600052602060002090601f016020900481019282610fb65760008555610ffd565b82601f10610fcf57805160ff1916838001178555610ffd565b82800160010185558215610ffd579182015b82811115610ffc578251825591602001919060010190610fe1565b5b50905061100a91906110eb565b5090565b50805460018160011615610100020316600290046000825580601f106110345750611053565b601f01602090049060005260206000209081019061105291906110eb565b5b50565b828054600181600116156101000203166002900490600052602060002090601f01602090048101928261108c57600085556110da565b82601f1061109d57805485556110da565b828001600101855582156110da57600052602060002091601f016020900482015b828111156110d95782548255916001019190600101906110be565b5b5090506110e791906110eb565b5090565b5b808211156111045760008160009055506001016110ec565b5090565b600061111b61111684611659565b611628565b90508281526020810184848401111561113357600080fd5b61113e848285611738565b509392505050565b6000813590506111558161178d565b92915050565b600082601f83011261116c57600080fd5b813561117c848260208601611108565b91505092915050565b600081359050611194816117a4565b92915050565b6000602082840312156111ac57600080fd5b60006111ba84828501611146565b91505092915050565b6000602082840312156111d557600080fd5b600082013567ffffffffffffffff8111156111ef57600080fd5b6111fb8482850161115b565b91505092915050565b6000806040838503121561121757600080fd5b600083013567ffffffffffffffff81111561123157600080fd5b61123d8582860161115b565b925050602083013567ffffffffffffffff81111561125a57600080fd5b6112668582860161115b565b9150509250929050565b60008060006060848603121561128557600080fd5b600084013567ffffffffffffffff81111561129f57600080fd5b6112ab8682870161115b565b93505060206112bc86828701611185565b925050604084013567ffffffffffffffff8111156112d957600080fd5b6112e58682870161115b565b9150509250925092565b60006112fb8383611387565b905092915050565b61130c816116ef565b82525050565b600061131d82611699565b61132781856116bc565b93508360208202850161133985611689565b8060005b85811015611375578484038952815161135685826112ef565b9450611361836116af565b925060208a0199505060018101905061133d565b50829750879550505050505092915050565b6000611392826116a4565b61139c81856116cd565b93506113ac818560208601611747565b6113b58161177c565b840191505092915050565b60006113cb826116a4565b6113d581856116de565b93506113e5818560208601611747565b6113ee8161177c565b840191505092915050565b60006114066023836116de565b91507f596f7520686176652072657669657765642074686973207573657220616c726560008301527f61647900000000000000000000000000000000000000000000000000000000006020830152604082019050919050565b600061146c6027836116de565b91507f596f752063616e74206c65617665206120726576696577206f6e20796f75722060008301527f70726f66696c65000000000000000000000000000000000000000000000000006020830152604082019050919050565b60006114d26019836116de565b91507f53636f7265206d757374206265206265747765656e20312d35000000000000006000830152602082019050919050565b61150e81611721565b82525050565b61151d8161172b565b82525050565b600060c0820190506115386000830189611303565b6115456020830188611505565b6115526040830187611505565b61155f6060830186611505565b61156c6080830185611514565b81810360a083015261157e81846113c0565b9050979650505050505050565b600060208201905081810360008301526115a58184611312565b905092915050565b600060208201905081810360008301526115c6816113f9565b9050919050565b600060208201905081810360008301526115e68161145f565b9050919050565b60006020820190508181036000830152611606816114c5565b9050919050565b60006020820190506116226000830184611505565b92915050565b6000604051905081810181811067ffffffffffffffff8211171561164f5761164e61177a565b5b8060405250919050565b600067ffffffffffffffff8211156116745761167361177a565b5b601f19601f8301169050602081019050919050565b6000819050602082019050919050565b600081519050919050565b600081519050919050565b6000602082019050919050565b600082825260208201905092915050565b600082825260208201905092915050565b600082825260208201905092915050565b60006116fa82611701565b9050919050565b600073ffffffffffffffffffffffffffffffffffffffff82169050919050565b6000819050919050565b600060ff82169050919050565b82818337600083830152505050565b60005b8381101561176557808201518184015260208101905061174a565b83811115611774576000848401525b50505050565bfe5b6000601f19601f8301169050919050565b611796816116ef565b81146117a157600080fd5b50565b6117ad8161172b565b81146117b857600080fd5b5056fea2646970667358221220cc2f972126f41825696ef512a8ecbc3e7c66014946c9e4b82f49b663bf1d182c64736f6c63430007060033",
  "immutableReferences": {},
  "source": "// SPDX-License-Identifier: MIT\r\npragma solidity >=0.4.0 <=0.8.0;\r\npragma experimental ABIEncoderV2;\r\n\r\ncontract Reviews {\r\n    struct Profile {\r\n        // store\r\n        address adrs; // address of profile\r\n        uint256 id; // profiles id\r\n        uint256 reviewsCount; // reviews total amount\r\n        uint256 reviewsSum; // all reviews sum\r\n        uint8 average; // average score\r\n        string description; // profile description\r\n        mapping(address => uint8) reviews; // stores the rating int value of a user's review\r\n        string[] reviewsString; // stores the rating string value of a user's review\r\n    }\r\n\r\n    mapping(address => Profile) public profiles; // stores all profiles. key=profileID , value=profile struct\r\n    uint256 public profilesCount; // amount of profiles in the mapping\r\n\r\n    function addProfile(string memory _stringAddress) public { // sender adds new profile\r\n        profilesCount++;\r\n        address _address = parseAddr(_stringAddress);\r\n        Profile storage p = profiles[_address];\r\n        p.id = profilesCount;\r\n        p.adrs = msg.sender;\r\n        p.description = \"Empty Description\";\r\n        p.reviewsCount = 0;\r\n    }\r\n\r\n    string[] profileStrings; // Stores profile details\r\n    \r\n    function getProfile(string memory _stringAddress) public returns (string [] memory){\r\n        \r\n        uint length = profileStrings.length;\r\n        for (uint i = 0; i<length; i++){ //Emptying array\r\n            profileStrings.pop();\r\n        }\r\n\r\n        address _address = parseAddr(_stringAddress);\r\n        Profile storage p = profiles[_address];\r\n\r\n        profileStrings.push(p.description); // Profile description\r\n        profileStrings.push(uint2str(p.average)); // Profile average review score\r\n\r\n        return profileStrings;\r\n    }\r\n\r\n\r\n    function getReviewStrings(string memory _stringAddress) public view returns (string [] memory){\r\n\r\n        address _address = parseAddr(_stringAddress);\r\n        Profile storage p = profiles[_address];\r\n\r\n        return p.reviewsString;\r\n    }\r\n\r\n    function editProfile (string memory _stringAddress, string memory _desc) public {\r\n        address _inputAdrs = parseAddr(_stringAddress);\r\n        require(_inputAdrs == msg.sender);\r\n\r\n        profiles[_inputAdrs].description = _desc;\r\n    }\r\n\r\n     function addReview(string memory _stringAddress, uint8 _review, string memory _reviewString) public { // sender adds new review\r\n         require(_review > 0 && _review < 6, 'Score must be between 1-5'); // valid review from 1 to 5\r\n         address _profileAdrs = parseAddr(_stringAddress);\r\n         require(profiles[_profileAdrs].reviews[msg.sender] == 0, 'You have reviewed this user already'); // sender can rate someone else only once\r\n         require(_profileAdrs != msg.sender, 'You cant leave a review on your profile');\r\n\r\n         profiles[_profileAdrs].reviews[msg.sender] = _review;\r\n         profiles[_profileAdrs].reviewsString.push(_reviewString);\r\n         profiles[_profileAdrs].reviewsCount++;\r\n         profiles[_profileAdrs].reviewsSum += _review;\r\n         profiles[_profileAdrs].average = uint8(\r\n             profiles[_profileAdrs].reviewsSum /\r\n                 profiles[_profileAdrs].reviewsCount\r\n         );\r\n     }\r\n\r\n    constructor() public{\r\n\r\n    }\r\n\r\n    function uint2str(uint _i) internal pure returns (string memory _uintAsString) {\r\n        if (_i == 0) {\r\n            return \"0\";\r\n        }\r\n        uint j = _i;\r\n        uint len;\r\n        while (j != 0) {\r\n            len++;\r\n            j /= 10;\r\n        }\r\n        bytes memory bstr = new bytes(len);\r\n        uint k = len - 1;\r\n        while (_i != 0) {\r\n            bstr[k--] = byte(uint8(48 + _i % 10));\r\n            _i /= 10;\r\n        }\r\n        return string(bstr);\r\n    }\r\n\r\n    function parseAddr(string memory _a) internal pure returns (address _parsedAddress) {\r\n    bytes memory tmp = bytes(_a);\r\n    uint160 iaddr = 0;\r\n    uint160 b1;\r\n    uint160 b2;\r\n    for (uint i = 2; i < 2 + 2 * 20; i += 2) {\r\n        iaddr *= 256;\r\n        b1 = uint160(uint8(tmp[i]));\r\n        b2 = uint160(uint8(tmp[i + 1]));\r\n        if ((b1 >= 97) && (b1 <= 102)) {\r\n            b1 -= 87;\r\n        } else if ((b1 >= 65) && (b1 <= 70)) {\r\n            b1 -= 55;\r\n        } else if ((b1 >= 48) && (b1 <= 57)) {\r\n            b1 -= 48;\r\n        }\r\n        if ((b2 >= 97) && (b2 <= 102)) {\r\n            b2 -= 87;\r\n        } else if ((b2 >= 65) && (b2 <= 70)) {\r\n            b2 -= 55;\r\n        } else if ((b2 >= 48) && (b2 <= 57)) {\r\n            b2 -= 48;\r\n        }\r\n        iaddr += (b1 * 16 + b2);\r\n    }\r\n    return address(iaddr);\r\n}\r\n}\r\n",
  "sourcePath": "C:/Users/diman/imp_stuff/Desktop/HIT/YEAR_3/A/Blockchain/PROJECT/RATECHAIN/review/src/contracts/Reviews.sol",
  "compiler": {
    "name": "solc",
    "version": "0.7.6+commit.7338295f.Emscripten.clang"
  },
  "schemaVersion": "3.3.4",
  "updatedAt": "2021-03-14T18:12:52.422Z",
  "networkType": "ethereum",
  "devdoc": {
    "kind": "dev",
    "methods": {},
    "version": 1
  },
  "userdoc": {
    "kind": "user",
    "methods": {},
    "version": 1
  }
}